:100000001DC037C036C035C034C033C032C031C067
:1000100030C02FC02EC02DC02CC02BC02AC029C07C
:1000200028C027C026C025C024C023C0D8C021C0F6
:1000300020C01FC01EC01DC01CC01BC011241FBE7D
:10004000CFEFD2E0DEBFCDBF11E0A0E0B1E0E4E24F
:10005000F8E002C005900D92A434B107D9F721E071
:10006000A4E4B1E001C01D92A736B207E1F751D078
:10007000D7C3C6CFB89ABA9AC298089584E080933D
:10008000660080B7836280BF83B7816083BFD39AE5
:10009000089580E488B985B1836085B92F9A089561
:1000A00099B18F71907E892B89B92E9A2E99FECFA6
:1000B00086B197B10895CF92DF92EF92FF920F939E
:1000C0001F93CF93DF931F92CDB7DEB7182F00E0B9
:1000D000C12CD12C7601061751F0812F6983E0DF06
:1000E000C80ED91EE11CF11C0F5F6981F4CF202FCF
:1000F00030E040E050E0C701B601A6D0C9010F9042
:10010000DF91CF911F910F91FF90EF90DF90CF90F3
:100110000895CF93DF93CDB7DEB7E2970FB6F8948B
:10012000DEBF0FBECDBFAADF22D0B3DF7894A2DF3F
:1001300089E191E049D084E68CBF44E1E42E41E0BE
:10014000F42E8E010F5F1F4F63E087E0B4DF9F93B3
:100150008F93FF92EF921F930F9398D0C80134D0E2
:100160000F900F900F900F900F900F90EDCFE0E752
:10017000F0E080818F7D8083109282008CE08093FC
:100180008100E6E8F0E0808182608083E4E8F0E0CE
:10019000808186608083E5E8F0E0808188618083EB
:1001A00080818068808308959091860095FFFCCFC0
:1001B0009091860090649093860080938000809157
:1001C000860086FFFCCF0895CF93DF93EC018991E1
:1001D000882311F0E9DFFBCFDF91CF9108951F92C3
:1001E0000F920FB60F9211242F933F934F935F936B
:1001F0008F939F93EF93FF934091860050918000DF
:1002000048718091460190E001968F719927209165
:10021000450130E08217930739F080934601FC01D5
:10022000E95BFE4F508301C042E040934401FF91DF
:10023000EF919F918F915F914F913F912F910F90EF
:100240000FBE0F901F901895A1E21A2EAA1BBB1B80
:10025000FD010DC0AA1FBB1FEE1FFF1FA217B30792
:10026000E407F50720F0A21BB30BE40BF50B661FA8
:10027000771F881F991F1A9469F76095709580956C
:1002800090959B01AC01BD01CF010895AEE0B0E0B7
:10029000EBE4F1E09CC20D891E8986E08C831A8311
:1002A00009838FEF9FE79E838D83AE01475E5F4F8B
:1002B0006F89788DCE01019608D0EF81F885E00F27
:1002C000F11F10822E96E4E09EC2ACE0B0E0EAE6B8
:1002D000F1E06FC27C016B018A01FC01178216827A
:1002E000838181FFB0C1CE0101964C01F70193815A
:1002F000F60193FD859193FF81916F01882309F4A5
:100300009EC1853239F493FD859193FF81916F01F0
:10031000853221F4B70190E0B1D1E8CF512C312CD6
:1003200020E02032A0F48B3269F030F4803259F0B2
:10033000833269F420612CC08D3239F0803339F476
:10034000216026C02260246023C0286021C027FDD0
:1003500027C030ED380F3A3078F426FF06C0852DDF
:100360006AE01ED2582E530E13C0832D6AE018D2B5
:10037000382E330E20620CC08E3221F426FD5FC170
:10038000206406C08C3611F4206802C0883641F41F
:10039000F60193FD859193FF81916F018111C1CF8A
:1003A000982F9F7D9554933028F40C5F1F4FFFE3E7
:1003B000F9830DC0833631F0833771F0833509F04E
:1003C00057C021C0F801808189830E5F1F4F4424EC
:1003D0004394512C540114C03801F2E06F0E711C8B
:1003E000F801A080B18026FF03C0652D70E002C037
:1003F0006FEF7FEFC5012C8736D12C0183012C854F
:100400002F77222E16C03801F2E06F0E711CF80112
:10041000A080B18026FF03C0652D70E002C06FEFA1
:100420007FEFC5012C8714D12C012C852068222E4A
:10043000830123FC19C0832D90E048165906A0F4CF
:10044000B70180E290E01AD13A94F5CFF50127FC8C
:10045000859127FE81915F01B70190E00FD13110A6
:100460003A94F1E04F1A51084114510479F7DEC073
:10047000843611F0893631F5F80127FF07C0608115
:100480007181828193810C5F1F4F08C060817181EF
:10049000882777FD8095982F0E5F1F4F2F76B22EFD
:1004A00097FF09C090958095709561957F4F8F4F0C
:1004B0009F4F2068B22E2AE030E0A40111D1A82E6F
:1004C000A81843C0853729F42F7EB22E2AE030E0E9
:1004D00025C0F22FF97FBF2E8F36C1F018F4883572
:1004E00079F0ADC0803719F0883721F0A8C02F2FE0
:1004F0002061B22EB4FE0DC08B2D8460B82E09C0D1
:1005000024FF0AC09F2F9660B92E06C028E030E075
:1005100005C020E130E002C020E132E0F801B7FE82
:1005200007C060817181828193810C5F1F4F06C07B
:100530006081718180E090E00E5F1F4FA401D0D0F8
:10054000A82EA818FB2DFF77BF2EB6FE0BC02B2DB3
:100550002E7FA51450F4B4FE0AC0B2FC08C02B2DA7
:100560002E7E05C07A2C2B2D03C07A2C01C0752C51
:1005700024FF0DC0FE01EA0DF11D8081803311F4CE
:10058000297E09C022FF06C07394739404C0822F91
:10059000867809F0739423FD12C020FF06C05A2C00
:1005A000731418F4530C5718732C731460F4B701B8
:1005B00080E290E02C8762D073942C85F6CF731480
:1005C00010F4371801C0312C24FF11C0B70180E3AB
:1005D00090E02C8753D02C8522FF16C021FF03C04A
:1005E00088E590E002C088E790E0B7010CC0822F58
:1005F000867851F021FD02C080E201C08BE227FD28
:100600008DE2B70190E03AD0A51430F4B70180E351
:1006100090E034D05A94F8CFAA94F401EA0DF11D79
:100620008081B70190E02AD0A110F6CF332009F4E1
:100630005DCEB70180E290E021D03A94F7CFF70188
:100640008681978102C08FEF9FEF2C96E2E1CDC0AB
:10065000FC010590615070400110D8F7809590958D
:100660008E0F9F1F0895FC01615070400190011092
:10067000D8F7809590958E0F9F1F08950F931F9325
:10068000CF93DF93182F092FEB018B8181FD03C0DE
:100690008FEF9FEF20C082FF10C04E815F812C81C1
:1006A0003D81421753077CF4E881F9819F012F5F58
:1006B0003F4F39832883108306C0E885F985812F51
:1006C0000995892B29F72E813F812F5F3F4F3F836B
:1006D0002E83812F902FDF91CF911F910F9108953D
:1006E000FA01AA27283061F1203191F1E8946F9343
:1006F0006E7F6E5F7F4F8F4F9F4FAF4FB1E040D007
:10070000B4E03ED0670F781F891F9A1FA11D680FA4
:10071000791F8A1F911DA11D6A0F711D811D911DD9
:10072000A11D22D009F468943F91062E000C3019C7
:10073000000C000C3019305D3193CEF6CF010895D6
:10074000462F4770405D4193B3E00FD0C9F7F6CF15
:10075000462F4F70405D4A3318F0495D31FD4052DD
:10076000419302D0A9F7EACFB4E0A6959795879573
:1007700077956795BA95C9F7009761057105089552
:100780009B01AC010A2E06945795479537952795FE
:10079000BA95C9F7620F731F841F951FA01D089596
:1007A000002480FD060E660F11F08695D1F7802D8E
:1007B00008952F923F924F925F926F927F928F9205
:1007C0009F92AF92BF92CF92DF92EF92FF920F93E0
:1007D0001F93CF93DF93CDB7DEB7CA1BDB0B0FB6EA
:1007E000F894DEBF0FBECDBF09942A8839884888A7
:1007F0005F846E847D848C849B84AA84B984C8843D
:10080000DF80EE80FD800C811B81AA81B981CE0F33
:10081000D11D0FB6F894DEBF0FBECDBFED01089518
:04082000F894FFCF7A
:1008240025642C2564006F6B2C636D643D25642066
:1008340076616C3D25640D0A004B697368616E2016
:10084400416D7261746961202D2046696E616C206E
:10085400596561722050726F6A6563742032303159
:04086400350A0D0044
:00000001FF
