S012000048656C6C6F576F726C642E7372656316
S11300009EC0B8C0B7C0B6C0B5C0B4C0B3C0B2C05B
S1130010B1C0B0C0AFC0AEC0ADC0ACC0ABC0AAC070
S1130020A9C0A8C0A7C0A6C0A5C0A4C037C1A2C00B
S1130030A1C0A0C09FC09EC09DC09CC06E616E0048
S1130040696E660000407A10F35A00A0724E1809D7
S11300500010A5D4E80000E87648170000E40B542B
S1130060020000CA9A3B000000E1F50500008096FA
S11300709800000040420F000000A086010000002C
S1130080102700000000E8030000000064000000E6
S113009000000A00000000000100000000002C76AF
S11300A0D888DC674F0823DFC1DFAE59E1B1B796CA
S11300B0E5E3E453C63AE651997696E8E6C2842627
S11300C0EB898C9B62ED407C6FFCEFBC9C9F40F203
S11300D0BAA56FA5F490055A2AF75C936B6CF9677F
S11300E06DC11BFCE0E40D47FEF520E6B500D0ED44
S11300F0902E0300943577050080841E08000020AC
S11301004E0A000000C80C333333330F986E128349
S11301101141EF8D2114893BE65516CFFEE6DB181D
S1130120D1844B381BF77C1D901DA4BBE4242032E2
S113013084725E228100C9F124ECA1E53D271124DB
S11301401FBECFEFD2E0DEBFCDBF11E0A0E0B1E033
S1130150E2E5FDE002C005900D92A434B107D9F7A1
S113016021E0A4E4B1E001C01D92A736B207E1F793
S113017023D0EDC545CFB89ABA9AC298089584E0C1
S11301808093660080B7836280BF83B7816083BF3A
S1130190D39A089580E488B985B1836085B92F9A8C
S11301A0089599B18F71907E982B99B92E9A2E99B2
S11301B0FECF86B197B10895CF93DF93CDB7DEB765
S11301C0E2970FB6F894DEBF0FBECDBFD8DF2BD0B9
S11301D0E1DF7894D0DF89E191E052D084E68CBFEE
S11301E00F2EF4E1EF2EF1E0FF2EF02D8E010F5FC4
S11301F01F4F83ED90E30197F1F700C00000C29A0E
S113020086E0CFDFC2989F938F93FF92EF921F9364
S11302100F931ED5C80134D00F900F900F900F90FC
S11302200F900F90E6CFE0E7F0E080818F7D808330
S1130230109282008CE080938100E6E8F0E08081F7
S113024082608083E4E8F0E0808186608083E5E872
S1130250F0E0808188618083808180688083089554
S1130260E6E8F0E0908195FFFDCFE6E8F0E09081CC
S11302709064908380938000808186FFFDCF0895F1
S1130280CF93DF93EC018881882329F02196E8DF5E
S113029089918111FCCFDF91CF9108951F920F9224
S11302A00FB60F9211242F933F934F935F938F9325
S11302B09F93EF93FF934091860050918000487183
S11302C08091460190E001968F7199272091450114
S11302D030E02817390739F080934601FC01E95BC7
S11302E0FE4F508301C042E040934401FF91EF91DF
S11302F09F918F915F914F913F912F910F900FBEDE
S11303000F901F901895A2E1B0E0E8E8F1E049C32E
S11303107C011B016A01FC0117821682838181FF23
S113032032C39E012F5F3F4F4901F7019381F101D1
S113033093FD859193FF81911F01882309F41FC3C5
S1130340853239F493FD859193FF81911F018532A4
S113035031F4B70190E04AD456016501E6CF10E0CC
S1130360512C20E02032A0F48B3269F030F480323A
S113037059F0833269F420612CC08D3239F0803316
S113038039F4216026C02260246023C0286021C083
S113039027FD27C030ED380F3A3078F426FF06C029
S11303A0812F6AE0F5D2182F130F13C0852D6AE050
S11303B0EFD2582E530E20620CC08E3221F426FD4B
S11303C0DEC2206406C08C3611F4206802C0883670
S11303D041F4F10193FD859193FF81911F018111F6
S11303E0C1CF9BEB980F933018F42061805E06C058
S11303F09BE9980F933008F083C12F7E26FF16E007
S11304002F73722E853619F42064722E08C0863636
S113041021F4F22FF0687F2E02C01111115077FEE3
S113042007C01C3348F444244394410E27E00BC016
S1130430183030F4212F06C027E04CE3442E03C0CB
S113044027E017E0412C560134E0A30EB11CF6015D
S11304506081718182819381042DA401D9D26C01C0
S1130460098100FF02C003FF06C071FC07C072FCD3
S113047008C0612C08C03DE2632E05C02BE2622E49
S113048002C090E2692E802F8C7081F1662011F0F9
S113049084E001C083E0851510F0512C0AC0581A7D
S11304A073FC07C0B70180E290E0A0D35A94D1F75F
S11304B0F4CF662021F0B701862D90E097D303FD99
S11304C003C000E410E002C00CE310E0F72DF0716B
S11304D07F2EF8018491882309F448C27110805258
S11304E0B70190E083D30F5F1F4FF3CF77FE0FC0A8
S11304F04C0C04FF04C08A81813309F44A94141417
S113050074F5F8E0F41578F588E0482E2CC076FCF4
S11305102AC0812F90E08C159D059CF02CEFC2160B
S11305202FEFD20674F0372D3068732E0AC0E2E044
S1130530F0E0EC0FFD1FE10FF11D8081803319F411
S113054011501111F4CF77FE0EC044244394410E90
S1130550812F90E0C816D9062CF41C1904C0442439
S1130560439401C010E077FE07C01C141D043CF442
S113057096012F5F3F4F05C025E030E002C021E027
S113058030E0662011F02F5F3F4F112331F0412FEF
S113059050E04F5F5F4F240F351F452D50E0241767
S11305A0350714F4521A01C0512C872D897041F477
S11305B0552031F0B70180E290E018D35A94F8CF77
S11305C0662021F0B701862D90E010D373FC08C09B
S11305D0552031F0B70180E390E008D35A94F8CF66
S11305E077FE47C03601D7FE02C0612C712C9601FC
S11305F0241931093D872C8794012C0D3D1D3F871B
S11306002E87812F90E022273327281B390B398B23
S1130610288B3FEF6316730621F4B7018EE290E056
S1130620E5D2C614D7045CF02C853D852615370524
S113063034F4EE85FF85E619F709818101C080E372
S113064031E0631A7108288939896216730624F027
S1130650B70190E0CBD2DDCF6C147D0439F49A81DC
S1130660963318F4953311F404FF81E3B70190E055
S113067045C08A81813309F00F7EB70190E0B6D27C
S1130680111105C074FE16C085E490E015C0B701D1
S11306908EE290E0ABD282E066246394680EF401AB
S11306A0E80FF11D8081B70190E0A0D2115051F301
S11306B0862DF2CF85E690E0B70198D2D7FC05C02D
S11306C0C114D10439F404FF05C0D194C194D108F4
S11306D08DE201C08BE2B70190E088D280E39AE01A
S11306E0C916D1042CF08F5F3AE0C31AD108F7CFB2
S11306F0B70190E07BD2B701C601C09677D236C16C
S1130700833631F0833779F0833509F054C020C043
S11307105601E2E0AE0EB11CF6018081898301E04E
S113072010E0640113C05601F2E0AF0EB11CF601F3
S1130730C080D18026FF03C0612F70E002C06FEF3C
S11307407FEFC6012A8B47D28C012A892F7714C0E8
S11307505601F2E0AF0EB11CF601C080D18026FF35
S113076003C0612F70E002C06FEF7FEFC6012A8BD8
S113077027D28C012A892068722E23FD18C0852D6A
S113078090E00817190798F4B70180E290E02ED2A0
S11307905A94F5CFF60177FC859177FE81916F012C
S11307A0B70190E023D251105A9401501109011558
S11307B0110581F7DBC0843611F0893649F55601FD
S11307C027FF09C0F4E0AF0EB11CF601608171810E
S11307D0828193810AC0F2E0AF0EB11CF601608100
S11307E07181882777FD8095982F022F0F7697FFC8
S11307F008C090958095709561957F4F8F4F9F4F5E
S113080000682AE030E0A40142D2C82EC8183DC0D6
S1130810022F853721F40F7E2AE030E01DC0097FC6
S11308208F3691F018F4883559F0A9C0803719F043
S1130830883711F0A4C0006104FF09C0046007C038
S113084024FF08C0066006C028E030E005C020E1AF
S113085030E002C020E132E0560107FF09C0F4E0B5
S1130860AF0EB11CF601608171818281938108C051
S1130870F2E0AF0EB11CF6016081718180E090E07E
S1130880A40105D2C82EC8180F7706FF0BC0202F6D
S11308902E7FC11650F404FF0AC002FD08C0202FA9
S11308A02E7E05C0DC2C202F03C0DC2C01C0D12EF1
S11308B024FF0DC0FE01EC0DF11D8081803311F485
S11308C0297E09C022FF06C0D394D39404C0822F8A
S11308D0867809F0D39423FD12C020FF06C01C2D96
S11308E0D51418F4150D1D19D52CD51460F4B701C1
S11308F080E290E02A8B7AD1D3942A89F6CFD5145A
S113090010F45D1801C0512C24FF11C0B70180E31D
S113091090E02A8B6BD12A8922FF16C021FF03C0E5
S113092088E590E002C088E790E0B7010CC0822F10
S1130930867851F021FD02C080E201C08BE227FDE0
S11309408DE2B70190E052D1C11630F4B70180E3D3
S113095090E04CD11150F8CFCA94F401EC0DF11D84
S11309608081B70190E042D1C110F6CF552009F43F
S1130970F4CCB70180E290E039D15A94F7CFF70173
S11309808681978102C08FEF9FEF6296E2E125C0D6
S1130990002480FD060E660F11F08695D1F7802D98
S11309A008952F923F924F925F926F927F928F920F
S11309B09F92AF92BF92CF92DF92EF92FF920F93EA
S11309C01F93CF93DF93CDB7DEB7CA1BDB0B0FB6F4
S11309D0F894DEBF0FBECDBF09942A8839884888B1
S11309E05F846E847D848C849B84AA84B984C88447
S11309F0DF80EE80FD800C811B81AA81B981CE0F3E
S1130A00D11D0FB6F894DEBF0FBECDBFED01089522
S1130A10283008F027E03327DA01990F311D87FDCC
S1130A20916000966105710539F432602E5F3D9343
S1130A3030E32A95E1F708959F3F30F0803871053F
S1130A40610509F03C5F3C5F3D93913008F080689C
S1130A50911DDF93CF931F930F93FF92EF92192F62
S1130A60987F9695E92F96959695E90FFF27E2567C
S1130A70FF4F99273327EE24FF24A701E7010590B0
S1130A800894079428F4360FE71EF81E491F511DD9
S1130A90660F771F881F991F0694A1F70590079486
S1130AA028F4E70EF81E491F561FC11D770F881F33
S1130AB0991F661F0694A1F70590079428F4F80E71
S1130AC0491F561FC71FD11D880F991F661F771F07
S1130AD00694A1F70590079420F4490F561FC71FE9
S1130AE0D81F990F661F771F881F0694A9F7849152
S1130AF01095177041F0D695C79557954795F7947B
S1130B00E7941A95C1F7E4E4F0E068941590159120
S1130B1035916591959105907FE27395E118F10AFD
S1130B20430B560BC90BD009C0F7E10CF11E431F50
S1130B30561FC91FD01D7EF4703311F48A95E6CF79
S1130B40E894015030F0080F0AF40027021708F463
S1130B50202F2395022F7A3328F079E37D932A9569
S1130B60E9F710C07D932A9589F6069497956795C1
S1130B70379517951794E118F10A430B560BC90BD7
S1130B80D00998F023957E9173957A3308F070E339
S1130B907C932013B8F77E9170617D9330F0839538
S1130BA071E37D9370E32A95E1F71124EF90FF90B0
S1130BB00F911F91CF91DF91992787FD909508950B
S1130BC0FC010590615070400110D8F78095909514
S1130BD08E0F9F1F0895FC01615070400190011019
S1130BE0D8F7809590958E0F9F1F08950F931F93AC
S1130BF0CF93DF93182F092FEB018B8181FD03C065
S1130C008FEF9FEF20C082FF10C04E815F812C8147
S1130C103D81421753077CF4E881F9819F012F5FDE
S1130C203F4F39832883108306C0E885F985812FD7
S1130C300995892B29F72E813F812F5F3F4F3F83F1
S1130C402E83812F902FDF91CF911F910F910895C3
S1130C50AEE0B0E0EDE2F6E0B2CE0D891E8986E0AA
S1130C608C831A8309838FEF9FE79E838D83AE0164
S1130C70475E5F4F6F89788DCE01019644DBEF812B
S1130C80F885E00FF11F10822E96E4E0B4CEFA014D
S1130C90AA27283061F1203191F1E8946F936E7F97
S1130CA06E5F7F4F8F4F9F4FAF4FB1E040D0B4E0A6
S1130CB03ED0670F781F891F9A1FA11D680F791FE7
S1130CC08A1F911DA11D6A0F711D811D911DA11DFA
S1130CD022D009F468943F91062E000C3019000CC0
S1130CE0000C3019305D3193CEF6CF010895462FB4
S1130CF04770405D4193B3E00FD0C9F7F6CF462F5C
S1130D004F70405D4A3318F0495D31FD40524193C4
S1130D1002D0A9F7EACFB4E0A69597958795779581
S1130D206795BA95C9F700976105710508959B0108
S1130D30AC010A2E06945795479537952795BA9591
S1130D40C9F7620F731F841F951FA01D0895F8949F
S1050D50FFCFCF
S1130D5225642C2564006F6B2C636D643D2564202F
S1130D6276616C3D25640D0A004B697368616E20DF
S1130D72416D7261746961202D2046696E616C2037
S1130D82596561722050726F6A6563742032303122
S1070D92350A0D000D
S9030000FC
